{
  "_format": "hh-sol-artifact-1",
  "contractName": "NFTopia",
  "sourceName": "contracts/NFTopia.sol",
  "abi": [
    {
      "inputs": [],
      "stateMutability": "nonpayable",
      "type": "constructor"
    },
    {
      "anonymous": false,
      "inputs": [
        {
          "indexed": true,
          "internalType": "address",
          "name": "owner",
          "type": "address"
        },
        {
          "indexed": true,
          "internalType": "address",
          "name": "approved",
          "type": "address"
        },
        {
          "indexed": true,
          "internalType": "uint256",
          "name": "tokenId",
          "type": "uint256"
        }
      ],
      "name": "Approval",
      "type": "event"
    },
    {
      "anonymous": false,
      "inputs": [
        {
          "indexed": true,
          "internalType": "address",
          "name": "owner",
          "type": "address"
        },
        {
          "indexed": true,
          "internalType": "address",
          "name": "operator",
          "type": "address"
        },
        {
          "indexed": false,
          "internalType": "bool",
          "name": "approved",
          "type": "bool"
        }
      ],
      "name": "ApprovalForAll",
      "type": "event"
    },
    {
      "anonymous": false,
      "inputs": [
        {
          "indexed": false,
          "internalType": "uint256",
          "name": "_fromTokenId",
          "type": "uint256"
        },
        {
          "indexed": false,
          "internalType": "uint256",
          "name": "_toTokenId",
          "type": "uint256"
        }
      ],
      "name": "BatchMetadataUpdate",
      "type": "event"
    },
    {
      "anonymous": false,
      "inputs": [
        {
          "indexed": false,
          "internalType": "uint256",
          "name": "_tokenId",
          "type": "uint256"
        }
      ],
      "name": "MetadataUpdate",
      "type": "event"
    },
    {
      "anonymous": false,
      "inputs": [
        {
          "indexed": true,
          "internalType": "address",
          "name": "previousOwner",
          "type": "address"
        },
        {
          "indexed": true,
          "internalType": "address",
          "name": "newOwner",
          "type": "address"
        }
      ],
      "name": "OwnershipTransferred",
      "type": "event"
    },
    {
      "anonymous": false,
      "inputs": [
        {
          "indexed": true,
          "internalType": "address",
          "name": "from",
          "type": "address"
        },
        {
          "indexed": true,
          "internalType": "address",
          "name": "to",
          "type": "address"
        },
        {
          "indexed": true,
          "internalType": "uint256",
          "name": "tokenId",
          "type": "uint256"
        }
      ],
      "name": "Transfer",
      "type": "event"
    },
    {
      "inputs": [],
      "name": "LIMIT_PER_ADDRESS",
      "outputs": [
        {
          "internalType": "uint256",
          "name": "",
          "type": "uint256"
        }
      ],
      "stateMutability": "view",
      "type": "function"
    },
    {
      "inputs": [],
      "name": "MAX_SUPPLY",
      "outputs": [
        {
          "internalType": "uint256",
          "name": "",
          "type": "uint256"
        }
      ],
      "stateMutability": "view",
      "type": "function"
    },
    {
      "inputs": [],
      "name": "PRICE_PER_TOKEN",
      "outputs": [
        {
          "internalType": "uint256",
          "name": "",
          "type": "uint256"
        }
      ],
      "stateMutability": "view",
      "type": "function"
    },
    {
      "inputs": [
        {
          "internalType": "address",
          "name": "to",
          "type": "address"
        },
        {
          "internalType": "uint256",
          "name": "tokenId",
          "type": "uint256"
        }
      ],
      "name": "approve",
      "outputs": [],
      "stateMutability": "nonpayable",
      "type": "function"
    },
    {
      "inputs": [
        {
          "internalType": "address",
          "name": "owner",
          "type": "address"
        }
      ],
      "name": "balanceOf",
      "outputs": [
        {
          "internalType": "uint256",
          "name": "",
          "type": "uint256"
        }
      ],
      "stateMutability": "view",
      "type": "function"
    },
    {
      "inputs": [
        {
          "internalType": "uint256",
          "name": "tokenId",
          "type": "uint256"
        }
      ],
      "name": "getApproved",
      "outputs": [
        {
          "internalType": "address",
          "name": "",
          "type": "address"
        }
      ],
      "stateMutability": "view",
      "type": "function"
    },
    {
      "inputs": [
        {
          "internalType": "address",
          "name": "owner",
          "type": "address"
        },
        {
          "internalType": "address",
          "name": "operator",
          "type": "address"
        }
      ],
      "name": "isApprovedForAll",
      "outputs": [
        {
          "internalType": "bool",
          "name": "",
          "type": "bool"
        }
      ],
      "stateMutability": "view",
      "type": "function"
    },
    {
      "inputs": [
        {
          "internalType": "string",
          "name": "tokenURI",
          "type": "string"
        }
      ],
      "name": "mintNFT",
      "outputs": [
        {
          "internalType": "uint256",
          "name": "",
          "type": "uint256"
        }
      ],
      "stateMutability": "payable",
      "type": "function"
    },
    {
      "inputs": [],
      "name": "name",
      "outputs": [
        {
          "internalType": "string",
          "name": "",
          "type": "string"
        }
      ],
      "stateMutability": "view",
      "type": "function"
    },
    {
      "inputs": [],
      "name": "owner",
      "outputs": [
        {
          "internalType": "address",
          "name": "",
          "type": "address"
        }
      ],
      "stateMutability": "view",
      "type": "function"
    },
    {
      "inputs": [
        {
          "internalType": "uint256",
          "name": "tokenId",
          "type": "uint256"
        }
      ],
      "name": "ownerOf",
      "outputs": [
        {
          "internalType": "address",
          "name": "",
          "type": "address"
        }
      ],
      "stateMutability": "view",
      "type": "function"
    },
    {
      "inputs": [],
      "name": "renounceOwnership",
      "outputs": [],
      "stateMutability": "nonpayable",
      "type": "function"
    },
    {
      "inputs": [
        {
          "internalType": "address",
          "name": "from",
          "type": "address"
        },
        {
          "internalType": "address",
          "name": "to",
          "type": "address"
        },
        {
          "internalType": "uint256",
          "name": "tokenId",
          "type": "uint256"
        }
      ],
      "name": "safeTransferFrom",
      "outputs": [],
      "stateMutability": "nonpayable",
      "type": "function"
    },
    {
      "inputs": [
        {
          "internalType": "address",
          "name": "from",
          "type": "address"
        },
        {
          "internalType": "address",
          "name": "to",
          "type": "address"
        },
        {
          "internalType": "uint256",
          "name": "tokenId",
          "type": "uint256"
        },
        {
          "internalType": "bytes",
          "name": "data",
          "type": "bytes"
        }
      ],
      "name": "safeTransferFrom",
      "outputs": [],
      "stateMutability": "nonpayable",
      "type": "function"
    },
    {
      "inputs": [
        {
          "internalType": "address",
          "name": "operator",
          "type": "address"
        },
        {
          "internalType": "bool",
          "name": "approved",
          "type": "bool"
        }
      ],
      "name": "setApprovalForAll",
      "outputs": [],
      "stateMutability": "nonpayable",
      "type": "function"
    },
    {
      "inputs": [
        {
          "internalType": "uint256",
          "name": "limit",
          "type": "uint256"
        }
      ],
      "name": "setLimit",
      "outputs": [],
      "stateMutability": "nonpayable",
      "type": "function"
    },
    {
      "inputs": [
        {
          "internalType": "uint256",
          "name": "max_supply",
          "type": "uint256"
        }
      ],
      "name": "setMaxSupply",
      "outputs": [],
      "stateMutability": "nonpayable",
      "type": "function"
    },
    {
      "inputs": [
        {
          "internalType": "uint256",
          "name": "price",
          "type": "uint256"
        }
      ],
      "name": "setPrice",
      "outputs": [],
      "stateMutability": "nonpayable",
      "type": "function"
    },
    {
      "inputs": [
        {
          "internalType": "bytes4",
          "name": "interfaceId",
          "type": "bytes4"
        }
      ],
      "name": "supportsInterface",
      "outputs": [
        {
          "internalType": "bool",
          "name": "",
          "type": "bool"
        }
      ],
      "stateMutability": "view",
      "type": "function"
    },
    {
      "inputs": [],
      "name": "symbol",
      "outputs": [
        {
          "internalType": "string",
          "name": "",
          "type": "string"
        }
      ],
      "stateMutability": "view",
      "type": "function"
    },
    {
      "inputs": [
        {
          "internalType": "uint256",
          "name": "tokenId",
          "type": "uint256"
        }
      ],
      "name": "tokenURI",
      "outputs": [
        {
          "internalType": "string",
          "name": "",
          "type": "string"
        }
      ],
      "stateMutability": "view",
      "type": "function"
    },
    {
      "inputs": [
        {
          "internalType": "address",
          "name": "from",
          "type": "address"
        },
        {
          "internalType": "address",
          "name": "to",
          "type": "address"
        },
        {
          "internalType": "uint256",
          "name": "tokenId",
          "type": "uint256"
        }
      ],
      "name": "transferFrom",
      "outputs": [],
      "stateMutability": "nonpayable",
      "type": "function"
    },
    {
      "inputs": [
        {
          "internalType": "address",
          "name": "newOwner",
          "type": "address"
        }
      ],
      "name": "transferOwnership",
      "outputs": [],
      "stateMutability": "nonpayable",
      "type": "function"
    },
    {
      "inputs": [],
      "name": "withdrawMoney",
      "outputs": [],
      "stateMutability": "nonpayable",
      "type": "function"
    }
  ],
  "bytecode": "0x6080604052662386f26fc10000600c556005600d556005600e553480156200002657600080fd5b506040518060400160405280600e81526020017f4e46546f706961204e61746976650000000000000000000000000000000000008152506040518060400160405280600481526020017f4e465450000000000000000000000000000000000000000000000000000000008152508160009081620000a4919062000427565b508060019081620000b6919062000427565b505050620000d9620000cd620000df60201b60201c565b620000e760201b60201c565b6200050e565b600033905090565b6000600760009054906101000a900473ffffffffffffffffffffffffffffffffffffffff16905081600760006101000a81548173ffffffffffffffffffffffffffffffffffffffff021916908373ffffffffffffffffffffffffffffffffffffffff1602179055508173ffffffffffffffffffffffffffffffffffffffff168173ffffffffffffffffffffffffffffffffffffffff167f8be0079c531659141344cd1fd0a4f28419497f9722a3daafe3b4186f6b6457e060405160405180910390a35050565b600081519050919050565b7f4e487b7100000000000000000000000000000000000000000000000000000000600052604160045260246000fd5b7f4e487b7100000000000000000000000000000000000000000000000000000000600052602260045260246000fd5b600060028204905060018216806200022f57607f821691505b602082108103620002455762000244620001e7565b5b50919050565b60008190508160005260206000209050919050565b60006020601f8301049050919050565b600082821b905092915050565b600060088302620002af7fffffffffffffffffffffffffffffffffffffffffffffffffffffffffffffffff8262000270565b620002bb868362000270565b95508019841693508086168417925050509392505050565b6000819050919050565b6000819050919050565b60006200030862000302620002fc84620002d3565b620002dd565b620002d3565b9050919050565b6000819050919050565b6200032483620002e7565b6200033c62000333826200030f565b8484546200027d565b825550505050565b600090565b6200035362000344565b6200036081848462000319565b505050565b5b8181101562000388576200037c60008262000349565b60018101905062000366565b5050565b601f821115620003d757620003a1816200024b565b620003ac8462000260565b81016020851015620003bc578190505b620003d4620003cb8562000260565b83018262000365565b50505b505050565b600082821c905092915050565b6000620003fc60001984600802620003dc565b1980831691505092915050565b6000620004178383620003e9565b9150826002028217905092915050565b6200043282620001ad565b67ffffffffffffffff8111156200044e576200044d620001b8565b5b6200045a825462000216565b620004678282856200038c565b600060209050601f8311600181146200049f57600084156200048a578287015190505b62000496858262000409565b86555062000506565b601f198416620004af866200024b565b60005b82811015620004d957848901518255600182019150602085019450602081019050620004b2565b86831015620004f95784890151620004f5601f891682620003e9565b8355505b6001600288020188555050505b505050505050565b613645806200051e6000396000f3fe60806040526004361061014b5760003560e01c8063715018a6116100b6578063ac4460021161006f578063ac4460021461047c578063b88d4fde14610493578063c87b56dd146104bc578063e985e9c5146104f9578063f2fde38b14610536578063fb37e8831461055f5761014b565b8063715018a614610392578063833b9499146103a95780638da5cb5b146103d457806391b7f5ed146103ff57806395d89b4114610428578063a22cb465146104535761014b565b806332cb6b0c1161010857806332cb6b0c14610270578063417bac1a1461029b57806342842e0e146102c65780636352211e146102ef5780636f8b44b01461032c57806370a08231146103555761014b565b806301ffc9a71461015057806306fdde031461018d578063081812fc146101b8578063095ea7b3146101f557806323b872dd1461021e57806327ea6f2b14610247575b600080fd5b34801561015c57600080fd5b5061017760048036038101906101729190612197565b61058f565b60405161018491906121df565b60405180910390f35b34801561019957600080fd5b506101a26105f0565b6040516101af919061228a565b60405180910390f35b3480156101c457600080fd5b506101df60048036038101906101da91906122e2565b610682565b6040516101ec9190612350565b60405180910390f35b34801561020157600080fd5b5061021c60048036038101906102179190612397565b6106c8565b005b34801561022a57600080fd5b50610245600480360381019061024091906123d7565b6107df565b005b34801561025357600080fd5b5061026e600480360381019061026991906122e2565b61083f565b005b34801561027c57600080fd5b50610285610851565b6040516102929190612439565b60405180910390f35b3480156102a757600080fd5b506102b0610857565b6040516102bd9190612439565b60405180910390f35b3480156102d257600080fd5b506102ed60048036038101906102e891906123d7565b61085d565b005b3480156102fb57600080fd5b50610316600480360381019061031191906122e2565b61087d565b6040516103239190612350565b60405180910390f35b34801561033857600080fd5b50610353600480360381019061034e91906122e2565b610903565b005b34801561036157600080fd5b5061037c60048036038101906103779190612454565b610915565b6040516103899190612439565b60405180910390f35b34801561039e57600080fd5b506103a76109cc565b005b3480156103b557600080fd5b506103be6109e0565b6040516103cb9190612439565b60405180910390f35b3480156103e057600080fd5b506103e96109e6565b6040516103f69190612350565b60405180910390f35b34801561040b57600080fd5b50610426600480360381019061042191906122e2565b610a10565b005b34801561043457600080fd5b5061043d610a22565b60405161044a919061228a565b60405180910390f35b34801561045f57600080fd5b5061047a600480360381019061047591906124ad565b610ab4565b005b34801561048857600080fd5b50610491610aca565b005b34801561049f57600080fd5b506104ba60048036038101906104b59190612622565b610b4a565b005b3480156104c857600080fd5b506104e360048036038101906104de91906122e2565b610bac565b6040516104f0919061228a565b60405180910390f35b34801561050557600080fd5b50610520600480360381019061051b91906126a5565b610cbe565b60405161052d91906121df565b60405180910390f35b34801561054257600080fd5b5061055d60048036038101906105589190612454565b610d52565b005b61057960048036038101906105749190612786565b610dd5565b6040516105869190612439565b60405180910390f35b6000634906490660e01b7bffffffffffffffffffffffffffffffffffffffffffffffffffffffff1916827bffffffffffffffffffffffffffffffffffffffffffffffffffffffff191614806105e957506105e882611080565b5b9050919050565b6060600080546105ff906127fe565b80601f016020809104026020016040519081016040528092919081815260200182805461062b906127fe565b80156106785780601f1061064d57610100808354040283529160200191610678565b820191906000526020600020905b81548152906001019060200180831161065b57829003601f168201915b5050505050905090565b600061068d82611162565b6004600083815260200190815260200160002060009054906101000a900473ffffffffffffffffffffffffffffffffffffffff169050919050565b60006106d38261087d565b90508073ffffffffffffffffffffffffffffffffffffffff168373ffffffffffffffffffffffffffffffffffffffff1603610743576040517f08c379a000000000000000000000000000000000000000000000000000000000815260040161073a906128a1565b60405180910390fd5b8073ffffffffffffffffffffffffffffffffffffffff166107626111ad565b73ffffffffffffffffffffffffffffffffffffffff16148061079157506107908161078b6111ad565b610cbe565b5b6107d0576040517f08c379a00000000000000000000000000000000000000000000000000000000081526004016107c790612933565b60405180910390fd5b6107da83836111b5565b505050565b6107f06107ea6111ad565b8261126e565b61082f576040517f08c379a0000000000000000000000000000000000000000000000000000000008152600401610826906129c5565b60405180910390fd5b61083a838383611303565b505050565b6108476115fc565b80600d8190555050565b600e5481565b600d5481565b61087883838360405180602001604052806000815250610b4a565b505050565b6000806108898361167a565b9050600073ffffffffffffffffffffffffffffffffffffffff168173ffffffffffffffffffffffffffffffffffffffff16036108fa576040517f08c379a00000000000000000000000000000000000000000000000000000000081526004016108f190612a31565b60405180910390fd5b80915050919050565b61090b6115fc565b80600e8190555050565b60008073ffffffffffffffffffffffffffffffffffffffff168273ffffffffffffffffffffffffffffffffffffffff1603610985576040517f08c379a000000000000000000000000000000000000000000000000000000000815260040161097c90612ac3565b60405180910390fd5b600360008373ffffffffffffffffffffffffffffffffffffffff1673ffffffffffffffffffffffffffffffffffffffff168152602001908152602001600020549050919050565b6109d46115fc565b6109de60006116b7565b565b600c5481565b6000600760009054906101000a900473ffffffffffffffffffffffffffffffffffffffff16905090565b610a186115fc565b80600c8190555050565b606060018054610a31906127fe565b80601f0160208091040260200160405190810160405280929190818152602001828054610a5d906127fe565b8015610aaa5780601f10610a7f57610100808354040283529160200191610aaa565b820191906000526020600020905b815481529060010190602001808311610a8d57829003601f168201915b5050505050905090565b610ac6610abf6111ad565b838361177d565b5050565b610ad26115fc565b60003390506000808273ffffffffffffffffffffffffffffffffffffffff1647604051610afe90612b14565b60006040518083038185875af1925050503d8060008114610b3b576040519150601f19603f3d011682016040523d82523d6000602084013e610b40565b606091505b5091509150505050565b610b5b610b556111ad565b8361126e565b610b9a576040517f08c379a0000000000000000000000000000000000000000000000000000000008152600401610b91906129c5565b60405180910390fd5b610ba6848484846118e9565b50505050565b6060610bb782611162565b6000600660008481526020019081526020016000208054610bd7906127fe565b80601f0160208091040260200160405190810160405280929190818152602001828054610c03906127fe565b8015610c505780601f10610c2557610100808354040283529160200191610c50565b820191906000526020600020905b815481529060010190602001808311610c3357829003601f168201915b505050505090506000610c61611945565b90506000815103610c76578192505050610cb9565b600082511115610cab578082604051602001610c93929190612b65565b60405160208183030381529060405292505050610cb9565b610cb48461195c565b925050505b919050565b6000600560008473ffffffffffffffffffffffffffffffffffffffff1673ffffffffffffffffffffffffffffffffffffffff16815260200190815260200160002060008373ffffffffffffffffffffffffffffffffffffffff1673ffffffffffffffffffffffffffffffffffffffff16815260200190815260200160002060009054906101000a900460ff16905092915050565b610d5a6115fc565b600073ffffffffffffffffffffffffffffffffffffffff168173ffffffffffffffffffffffffffffffffffffffff1603610dc9576040517f08c379a0000000000000000000000000000000000000000000000000000000008152600401610dc090612bfb565b60405180910390fd5b610dd2816116b7565b50565b600034600c541115610e1c576040517f08c379a0000000000000000000000000000000000000000000000000000000008152600401610e1390612c67565b60405180910390fd5b600d54600a60003373ffffffffffffffffffffffffffffffffffffffff1673ffffffffffffffffffffffffffffffffffffffff16815260200190815260200160002060009054906101000a900460ff1660ff1610610eaf576040517f08c379a0000000000000000000000000000000000000000000000000000000008152600401610ea690612cd3565b60405180910390fd5b600e546001610ebe60096119c4565b610ec89190612d22565b1115610f09576040517f08c379a0000000000000000000000000000000000000000000000000000000008152600401610f0090612da2565b60405180910390fd5b6000600b83604051610f1b9190612dc2565b908152602001604051809103902060009054906101000a900460ff1660ff1614610f7a576040517f08c379a0000000000000000000000000000000000000000000000000000000008152600401610f7190612e25565b60405180910390fd5b6001600b83604051610f8c9190612dc2565b908152602001604051809103902060008282829054906101000a900460ff16610fb59190612e52565b92506101000a81548160ff021916908360ff1602179055506001600a60003373ffffffffffffffffffffffffffffffffffffffff1673ffffffffffffffffffffffffffffffffffffffff16815260200190815260200160002060008282829054906101000a900460ff166110299190612e52565b92506101000a81548160ff021916908360ff16021790555061104b60086119d2565b61105560096119d2565b600061106160086119c4565b905061106d33826119e8565b6110778184611c05565b80915050919050565b60007f80ac58cd000000000000000000000000000000000000000000000000000000007bffffffffffffffffffffffffffffffffffffffffffffffffffffffff1916827bffffffffffffffffffffffffffffffffffffffffffffffffffffffff1916148061114b57507f5b5e139f000000000000000000000000000000000000000000000000000000007bffffffffffffffffffffffffffffffffffffffffffffffffffffffff1916827bffffffffffffffffffffffffffffffffffffffffffffffffffffffff1916145b8061115b575061115a82611ca9565b5b9050919050565b61116b81611d13565b6111aa576040517f08c379a00000000000000000000000000000000000000000000000000000000081526004016111a190612a31565b60405180910390fd5b50565b600033905090565b816004600083815260200190815260200160002060006101000a81548173ffffffffffffffffffffffffffffffffffffffff021916908373ffffffffffffffffffffffffffffffffffffffff160217905550808273ffffffffffffffffffffffffffffffffffffffff166112288361087d565b73ffffffffffffffffffffffffffffffffffffffff167f8c5be1e5ebec7d5bd14f71427d1e84f3dd0314c0f7b2291e5b200ac8c7c3b92560405160405180910390a45050565b60008061127a8361087d565b90508073ffffffffffffffffffffffffffffffffffffffff168473ffffffffffffffffffffffffffffffffffffffff1614806112bc57506112bb8185610cbe565b5b806112fa57508373ffffffffffffffffffffffffffffffffffffffff166112e284610682565b73ffffffffffffffffffffffffffffffffffffffff16145b91505092915050565b8273ffffffffffffffffffffffffffffffffffffffff166113238261087d565b73ffffffffffffffffffffffffffffffffffffffff1614611379576040517f08c379a000000000000000000000000000000000000000000000000000000000815260040161137090612ef9565b60405180910390fd5b600073ffffffffffffffffffffffffffffffffffffffff168273ffffffffffffffffffffffffffffffffffffffff16036113e8576040517f08c379a00000000000000000000000000000000000000000000000000000000081526004016113df90612f8b565b60405180910390fd5b6113f58383836001611d54565b8273ffffffffffffffffffffffffffffffffffffffff166114158261087d565b73ffffffffffffffffffffffffffffffffffffffff161461146b576040517f08c379a000000000000000000000000000000000000000000000000000000000815260040161146290612ef9565b60405180910390fd5b6004600082815260200190815260200160002060006101000a81549073ffffffffffffffffffffffffffffffffffffffff02191690556001600360008573ffffffffffffffffffffffffffffffffffffffff1673ffffffffffffffffffffffffffffffffffffffff168152602001908152602001600020600082825403925050819055506001600360008473ffffffffffffffffffffffffffffffffffffffff1673ffffffffffffffffffffffffffffffffffffffff16815260200190815260200160002060008282540192505081905550816002600083815260200190815260200160002060006101000a81548173ffffffffffffffffffffffffffffffffffffffff021916908373ffffffffffffffffffffffffffffffffffffffff160217905550808273ffffffffffffffffffffffffffffffffffffffff168473ffffffffffffffffffffffffffffffffffffffff167fddf252ad1be2c89b69c2b068fc378daa952ba7f163c4a11628f55a4df523b3ef60405160405180910390a46115f78383836001611d5a565b505050565b6116046111ad565b73ffffffffffffffffffffffffffffffffffffffff166116226109e6565b73ffffffffffffffffffffffffffffffffffffffff1614611678576040517f08c379a000000000000000000000000000000000000000000000000000000000815260040161166f90612ff7565b60405180910390fd5b565b60006002600083815260200190815260200160002060009054906101000a900473ffffffffffffffffffffffffffffffffffffffff169050919050565b6000600760009054906101000a900473ffffffffffffffffffffffffffffffffffffffff16905081600760006101000a81548173ffffffffffffffffffffffffffffffffffffffff021916908373ffffffffffffffffffffffffffffffffffffffff1602179055508173ffffffffffffffffffffffffffffffffffffffff168173ffffffffffffffffffffffffffffffffffffffff167f8be0079c531659141344cd1fd0a4f28419497f9722a3daafe3b4186f6b6457e060405160405180910390a35050565b8173ffffffffffffffffffffffffffffffffffffffff168373ffffffffffffffffffffffffffffffffffffffff16036117eb576040517f08c379a00000000000000000000000000000000000000000000000000000000081526004016117e290613063565b60405180910390fd5b80600560008573ffffffffffffffffffffffffffffffffffffffff1673ffffffffffffffffffffffffffffffffffffffff16815260200190815260200160002060008473ffffffffffffffffffffffffffffffffffffffff1673ffffffffffffffffffffffffffffffffffffffff16815260200190815260200160002060006101000a81548160ff0219169083151502179055508173ffffffffffffffffffffffffffffffffffffffff168373ffffffffffffffffffffffffffffffffffffffff167f17307eab39ab6107e8899845ad3d59bd9653f200f220920489ca2b5937696c31836040516118dc91906121df565b60405180910390a3505050565b6118f4848484611303565b61190084848484611d60565b61193f576040517f08c379a0000000000000000000000000000000000000000000000000000000008152600401611936906130f5565b60405180910390fd5b50505050565b606060405180602001604052806000815250905090565b606061196782611162565b6000611971611945565b9050600081511161199157604051806020016040528060008152506119bc565b8061199b84611ee7565b6040516020016119ac929190612b65565b6040516020818303038152906040525b915050919050565b600081600001549050919050565b6001816000016000828254019250508190555050565b600073ffffffffffffffffffffffffffffffffffffffff168273ffffffffffffffffffffffffffffffffffffffff1603611a57576040517f08c379a0000000000000000000000000000000000000000000000000000000008152600401611a4e90613161565b60405180910390fd5b611a6081611d13565b15611aa0576040517f08c379a0000000000000000000000000000000000000000000000000000000008152600401611a97906131cd565b60405180910390fd5b611aae600083836001611d54565b611ab781611d13565b15611af7576040517f08c379a0000000000000000000000000000000000000000000000000000000008152600401611aee906131cd565b60405180910390fd5b6001600360008473ffffffffffffffffffffffffffffffffffffffff1673ffffffffffffffffffffffffffffffffffffffff16815260200190815260200160002060008282540192505081905550816002600083815260200190815260200160002060006101000a81548173ffffffffffffffffffffffffffffffffffffffff021916908373ffffffffffffffffffffffffffffffffffffffff160217905550808273ffffffffffffffffffffffffffffffffffffffff16600073ffffffffffffffffffffffffffffffffffffffff167fddf252ad1be2c89b69c2b068fc378daa952ba7f163c4a11628f55a4df523b3ef60405160405180910390a4611c01600083836001611d5a565b5050565b611c0e82611d13565b611c4d576040517f08c379a0000000000000000000000000000000000000000000000000000000008152600401611c449061325f565b60405180910390fd5b80600660008481526020019081526020016000209081611c6d919061342b565b507ff8e1a15aba9398e019f0b49df1a4fde98ee17ae345cb5f6b5e2c27f5033e8ce782604051611c9d9190612439565b60405180910390a15050565b60007f01ffc9a7000000000000000000000000000000000000000000000000000000007bffffffffffffffffffffffffffffffffffffffffffffffffffffffff1916827bffffffffffffffffffffffffffffffffffffffffffffffffffffffff1916149050919050565b60008073ffffffffffffffffffffffffffffffffffffffff16611d358361167a565b73ffffffffffffffffffffffffffffffffffffffff1614159050919050565b50505050565b50505050565b6000611d818473ffffffffffffffffffffffffffffffffffffffff16611fb5565b15611eda578373ffffffffffffffffffffffffffffffffffffffff1663150b7a02611daa6111ad565b8786866040518563ffffffff1660e01b8152600401611dcc9493929190613552565b6020604051808303816000875af1925050508015611e0857506040513d601f19601f82011682018060405250810190611e0591906135b3565b60015b611e8a573d8060008114611e38576040519150601f19603f3d011682016040523d82523d6000602084013e611e3d565b606091505b506000815103611e82576040517f08c379a0000000000000000000000000000000000000000000000000000000008152600401611e79906130f5565b60405180910390fd5b805181602001fd5b63150b7a0260e01b7bffffffffffffffffffffffffffffffffffffffffffffffffffffffff1916817bffffffffffffffffffffffffffffffffffffffffffffffffffffffff191614915050611edf565b600190505b949350505050565b606060006001611ef684611fd8565b01905060008167ffffffffffffffff811115611f1557611f146124f7565b5b6040519080825280601f01601f191660200182016040528015611f475781602001600182028036833780820191505090505b509050600082602001820190505b600115611faa578080600190039150507f3031323334353637383961626364656600000000000000000000000000000000600a86061a8153600a8581611f9e57611f9d6135e0565b5b04945060008503611f55575b819350505050919050565b6000808273ffffffffffffffffffffffffffffffffffffffff163b119050919050565b600080600090507a184f03e93ff9f4daa797ed6e38ed64bf6a1f0100000000000000008310612036577a184f03e93ff9f4daa797ed6e38ed64bf6a1f010000000000000000838161202c5761202b6135e0565b5b0492506040810190505b6d04ee2d6d415b85acef81000000008310612073576d04ee2d6d415b85acef81000000008381612069576120686135e0565b5b0492506020810190505b662386f26fc1000083106120a257662386f26fc100008381612098576120976135e0565b5b0492506010810190505b6305f5e10083106120cb576305f5e10083816120c1576120c06135e0565b5b0492506008810190505b61271083106120f05761271083816120e6576120e56135e0565b5b0492506004810190505b606483106121135760648381612109576121086135e0565b5b0492506002810190505b600a8310612122576001810190505b80915050919050565b6000604051905090565b600080fd5b600080fd5b60007fffffffff0000000000000000000000000000000000000000000000000000000082169050919050565b6121748161213f565b811461217f57600080fd5b50565b6000813590506121918161216b565b92915050565b6000602082840312156121ad576121ac612135565b5b60006121bb84828501612182565b91505092915050565b60008115159050919050565b6121d9816121c4565b82525050565b60006020820190506121f460008301846121d0565b92915050565b600081519050919050565b600082825260208201905092915050565b60005b83811015612234578082015181840152602081019050612219565b60008484015250505050565b6000601f19601f8301169050919050565b600061225c826121fa565b6122668185612205565b9350612276818560208601612216565b61227f81612240565b840191505092915050565b600060208201905081810360008301526122a48184612251565b905092915050565b6000819050919050565b6122bf816122ac565b81146122ca57600080fd5b50565b6000813590506122dc816122b6565b92915050565b6000602082840312156122f8576122f7612135565b5b6000612306848285016122cd565b91505092915050565b600073ffffffffffffffffffffffffffffffffffffffff82169050919050565b600061233a8261230f565b9050919050565b61234a8161232f565b82525050565b60006020820190506123656000830184612341565b92915050565b6123748161232f565b811461237f57600080fd5b50565b6000813590506123918161236b565b92915050565b600080604083850312156123ae576123ad612135565b5b60006123bc85828601612382565b92505060206123cd858286016122cd565b9150509250929050565b6000806000606084860312156123f0576123ef612135565b5b60006123fe86828701612382565b935050602061240f86828701612382565b9250506040612420868287016122cd565b9150509250925092565b612433816122ac565b82525050565b600060208201905061244e600083018461242a565b92915050565b60006020828403121561246a57612469612135565b5b600061247884828501612382565b91505092915050565b61248a816121c4565b811461249557600080fd5b50565b6000813590506124a781612481565b92915050565b600080604083850312156124c4576124c3612135565b5b60006124d285828601612382565b92505060206124e385828601612498565b9150509250929050565b600080fd5b600080fd5b7f4e487b7100000000000000000000000000000000000000000000000000000000600052604160045260246000fd5b61252f82612240565b810181811067ffffffffffffffff8211171561254e5761254d6124f7565b5b80604052505050565b600061256161212b565b905061256d8282612526565b919050565b600067ffffffffffffffff82111561258d5761258c6124f7565b5b61259682612240565b9050602081019050919050565b82818337600083830152505050565b60006125c56125c084612572565b612557565b9050828152602081018484840111156125e1576125e06124f2565b5b6125ec8482856125a3565b509392505050565b600082601f830112612609576126086124ed565b5b81356126198482602086016125b2565b91505092915050565b6000806000806080858703121561263c5761263b612135565b5b600061264a87828801612382565b945050602061265b87828801612382565b935050604061266c878288016122cd565b925050606085013567ffffffffffffffff81111561268d5761268c61213a565b5b612699878288016125f4565b91505092959194509250565b600080604083850312156126bc576126bb612135565b5b60006126ca85828601612382565b92505060206126db85828601612382565b9150509250929050565b600067ffffffffffffffff821115612700576126ff6124f7565b5b61270982612240565b9050602081019050919050565b6000612729612724846126e5565b612557565b905082815260208101848484011115612745576127446124f2565b5b6127508482856125a3565b509392505050565b600082601f83011261276d5761276c6124ed565b5b813561277d848260208601612716565b91505092915050565b60006020828403121561279c5761279b612135565b5b600082013567ffffffffffffffff8111156127ba576127b961213a565b5b6127c684828501612758565b91505092915050565b7f4e487b7100000000000000000000000000000000000000000000000000000000600052602260045260246000fd5b6000600282049050600182168061281657607f821691505b602082108103612829576128286127cf565b5b50919050565b7f4552433732313a20617070726f76616c20746f2063757272656e74206f776e6560008201527f7200000000000000000000000000000000000000000000000000000000000000602082015250565b600061288b602183612205565b91506128968261282f565b604082019050919050565b600060208201905081810360008301526128ba8161287e565b9050919050565b7f4552433732313a20617070726f76652063616c6c6572206973206e6f7420746f60008201527f6b656e206f776e6572206f7220617070726f76656420666f7220616c6c000000602082015250565b600061291d603d83612205565b9150612928826128c1565b604082019050919050565b6000602082019050818103600083015261294c81612910565b9050919050565b7f4552433732313a2063616c6c6572206973206e6f7420746f6b656e206f776e6560008201527f72206f7220617070726f76656400000000000000000000000000000000000000602082015250565b60006129af602d83612205565b91506129ba82612953565b604082019050919050565b600060208201905081810360008301526129de816129a2565b9050919050565b7f4552433732313a20696e76616c696420746f6b656e2049440000000000000000600082015250565b6000612a1b601883612205565b9150612a26826129e5565b602082019050919050565b60006020820190508181036000830152612a4a81612a0e565b9050919050565b7f4552433732313a2061646472657373207a65726f206973206e6f74206120766160008201527f6c6964206f776e65720000000000000000000000000000000000000000000000602082015250565b6000612aad602983612205565b9150612ab882612a51565b604082019050919050565b60006020820190508181036000830152612adc81612aa0565b9050919050565b600081905092915050565b50565b6000612afe600083612ae3565b9150612b0982612aee565b600082019050919050565b6000612b1f82612af1565b9150819050919050565b600081905092915050565b6000612b3f826121fa565b612b498185612b29565b9350612b59818560208601612216565b80840191505092915050565b6000612b718285612b34565b9150612b7d8284612b34565b91508190509392505050565b7f4f776e61626c653a206e6577206f776e657220697320746865207a65726f206160008201527f6464726573730000000000000000000000000000000000000000000000000000602082015250565b6000612be5602683612205565b9150612bf082612b89565b604082019050919050565b60006020820190508181036000830152612c1481612bd8565b9050919050565b7f4574686572207061696420697320696e636f7272656374000000000000000000600082015250565b6000612c51601783612205565b9150612c5c82612c1b565b602082019050919050565b60006020820190508181036000830152612c8081612c44565b9050919050565b7f596f752068617665206578636565646564206d696e74696e67206c696d697400600082015250565b6000612cbd601f83612205565b9150612cc882612c87565b602082019050919050565b60006020820190508181036000830152612cec81612cb0565b9050919050565b7f4e487b7100000000000000000000000000000000000000000000000000000000600052601160045260246000fd5b6000612d2d826122ac565b9150612d38836122ac565b9250828201905080821115612d5057612d4f612cf3565b5b92915050565b7f596f752068617665206578636565646564204d617820537570706c7900000000600082015250565b6000612d8c601c83612205565b9150612d9782612d56565b602082019050919050565b60006020820190508181036000830152612dbb81612d7f565b9050919050565b6000612dce8284612b34565b915081905092915050565b7f54686973204e46542068617320616c7265616479206265656e206d696e746564600082015250565b6000612e0f602083612205565b9150612e1a82612dd9565b602082019050919050565b60006020820190508181036000830152612e3e81612e02565b9050919050565b600060ff82169050919050565b6000612e5d82612e45565b9150612e6883612e45565b9250828201905060ff811115612e8157612e80612cf3565b5b92915050565b7f4552433732313a207472616e736665722066726f6d20696e636f72726563742060008201527f6f776e6572000000000000000000000000000000000000000000000000000000602082015250565b6000612ee3602583612205565b9150612eee82612e87565b604082019050919050565b60006020820190508181036000830152612f1281612ed6565b9050919050565b7f4552433732313a207472616e7366657220746f20746865207a65726f2061646460008201527f7265737300000000000000000000000000000000000000000000000000000000602082015250565b6000612f75602483612205565b9150612f8082612f19565b604082019050919050565b60006020820190508181036000830152612fa481612f68565b9050919050565b7f4f776e61626c653a2063616c6c6572206973206e6f7420746865206f776e6572600082015250565b6000612fe1602083612205565b9150612fec82612fab565b602082019050919050565b6000602082019050818103600083015261301081612fd4565b9050919050565b7f4552433732313a20617070726f766520746f2063616c6c657200000000000000600082015250565b600061304d601983612205565b915061305882613017565b602082019050919050565b6000602082019050818103600083015261307c81613040565b9050919050565b7f4552433732313a207472616e7366657220746f206e6f6e20455243373231526560008201527f63656976657220696d706c656d656e7465720000000000000000000000000000602082015250565b60006130df603283612205565b91506130ea82613083565b604082019050919050565b6000602082019050818103600083015261310e816130d2565b9050919050565b7f4552433732313a206d696e7420746f20746865207a65726f2061646472657373600082015250565b600061314b602083612205565b915061315682613115565b602082019050919050565b6000602082019050818103600083015261317a8161313e565b9050919050565b7f4552433732313a20746f6b656e20616c7265616479206d696e74656400000000600082015250565b60006131b7601c83612205565b91506131c282613181565b602082019050919050565b600060208201905081810360008301526131e6816131aa565b9050919050565b7f45524337323155524953746f726167653a2055524920736574206f66206e6f6e60008201527f6578697374656e7420746f6b656e000000000000000000000000000000000000602082015250565b6000613249602e83612205565b9150613254826131ed565b604082019050919050565b600060208201905081810360008301526132788161323c565b9050919050565b60008190508160005260206000209050919050565b60006020601f8301049050919050565b600082821b905092915050565b6000600883026132e17fffffffffffffffffffffffffffffffffffffffffffffffffffffffffffffffff826132a4565b6132eb86836132a4565b95508019841693508086168417925050509392505050565b6000819050919050565b600061332861332361331e846122ac565b613303565b6122ac565b9050919050565b6000819050919050565b6133428361330d565b61335661334e8261332f565b8484546132b1565b825550505050565b600090565b61336b61335e565b613376818484613339565b505050565b5b8181101561339a5761338f600082613363565b60018101905061337c565b5050565b601f8211156133df576133b08161327f565b6133b984613294565b810160208510156133c8578190505b6133dc6133d485613294565b83018261337b565b50505b505050565b600082821c905092915050565b6000613402600019846008026133e4565b1980831691505092915050565b600061341b83836133f1565b9150826002028217905092915050565b613434826121fa565b67ffffffffffffffff81111561344d5761344c6124f7565b5b61345782546127fe565b61346282828561339e565b600060209050601f8311600181146134955760008415613483578287015190505b61348d858261340f565b8655506134f5565b601f1984166134a38661327f565b60005b828110156134cb578489015182556001820191506020850194506020810190506134a6565b868310156134e857848901516134e4601f8916826133f1565b8355505b6001600288020188555050505b505050505050565b600081519050919050565b600082825260208201905092915050565b6000613524826134fd565b61352e8185613508565b935061353e818560208601612216565b61354781612240565b840191505092915050565b60006080820190506135676000830187612341565b6135746020830186612341565b613581604083018561242a565b81810360608301526135938184613519565b905095945050505050565b6000815190506135ad8161216b565b92915050565b6000602082840312156135c9576135c8612135565b5b60006135d78482850161359e565b91505092915050565b7f4e487b7100000000000000000000000000000000000000000000000000000000600052601260045260246000fdfea2646970667358221220de985635b8f7d834a0f15cb1740919a4870ac93c0a6570bfdcd168ccc12e734264736f6c63430008130033",
  "linkReferences": {},
  "deployedLinkReferences": {}
}